:100000000C9434000C943E000C943E000C943E0082
:100010000C943E000C943E000C943E000C943E0068
:100020000C943E000C943E000C943E000C943E0058
:100030000C943E000C943E000C943E000C943E0048
:100040000C943E000C943E000C943E000C943E0038
:100050000C943E000C943E000C943E000C943E0028
:100060000C943E000C943E0011241FBECFEFD8E04C
:10007000DEBFCDBF0E9440000C9461000C940000D4
:1000800084B18FEF84B98CEF8BB980E284B999B1D8
:1000900089B1887029B139B1492F447092FF02C0EB
:1000A00024FF09C0882341F0232B24FF04C04423EC
:1000B00029F034FD03C080E285B9E9CF80E085B93D
:0600C000E6CFF894FFCF2B
:00000001FF
